:020000040800F2
:10000000F04600207D020008172E0008C12A0008D3
:10001000D12D000889040008193A000800000000EA
:10002000000000000000000000000000C101000806
:10003000150900080000000015020008AD31000895
:10004000970200089702000897020008970200082C
:10005000970200089702000897020008970200081C
:10006000970200089702000897020008970200080C
:1000700097020008970200089702000897020008FC
:1000800097020008970200089702000897020008EC
:100090008D040008970200089702000897020008E4
:1000A00097020008970200089702000897020008CC
:1000B00097020008970200089702000897020008BC
:1000C00097020008970200089702000897020008AC
:1000D00097020008E139000897020008F539000886
:1000E000970200089702000897020008970200088C
:1000F00009330008970200089702000897020008D9
:10010000970200089702000897020008970200086B
:10011000970200089702000897020008970200085B
:1001200097020008F906000809070008970200086E
:10013000970200089702000897020008970200083B
:10014000970200089702000897020008970200082B
:10015000970200089702000897020008053A000875
:10016000970200089702000897020008970200080B
:10017000970200089702000897020008000000009C
:1001800097020008970200089702000897020008EB
:1001900097020008970200089702000897020008DB
:1001A000000000000000000097020008DFF80CD0FB
:1001B00000F0D8F800480047953C0008F0460020C1
:1001C0002B4B19680868B0E8F04F80F30988BFF33B
:1001D0006F8F4FF0000080F311887047000000001F
:1001E00006480068006880F3088862B661B6BFF30D
:1001F0004F8FBFF36F8F00DF00BF00BF08ED00E03F
:10020000DFF80C00016841F470010160704700BF25
:1002100088ED00E0EFF30980BFF36F8F144B1A688D
:100220001EF0100F08BF20ED108A20E9F04F10607B
:1002300008B44FF0500080F31188BFF34F8FBFF325
:100240006F8F04F00FFC4FF0000080F3118808BCA2
:1002500019680868B0E8F04F1EF0100F08BFB0EC46
:10026000108A80F30988BFF36F8F704700BF00BF0B
:1002700038000020EFF305807047000006488047F3
:1002800006480047FEE7FEE7FEE7FEE7FEE7FEE77B
:10029000FEE7FEE7FEE7FEE7A5320008AD01000835
:1002A0002DE9F05F0546002092469B4688460646AB
:1002B000814640241BE0284641464746224600F03E
:1002C00041F853465A46C01A914110D31146184678
:1002D000224600F028F82D1A67EB01084F46224607
:1002E0000120002100F01FF817EB00094E41201EED
:1002F000A4F10104DFDC484631462A464346BDE806
:10030000F09F40EA01039B0703D009E008C9121FD0
:1003100008C0042AFAD203E011F8013B00F8013BBF
:10032000521EF9D27047202A04DB203A00FA02F16B
:10033000002070479140C2F1200320FA03F31943D3
:1003400090407047202A04DB203A21FA02F0002175
:10035000704721FA02F3D040C2F1200291400843D5
:1003600019467047064C074D06E0E06840F001036F
:1003700094E8070098471034AC42F6D3FFF71AFF11
:1003800090550008B055000810B504461049206883
:1003900088420BD1642003F0ADFC0E49086008468A
:1003A000006808B9012010BD0020FCE70A49206858
:1003B00088420BD1642003F09DFC08490860084680
:1003C000006808B90120EEE70020ECE70120EAE729
:1003D000006400409000002000680040940000206D
:1003E00010B504462049206888420BD1102003F044
:1003F00081FC1E4908600846006808B9012010BD4C
:100400000020FCE71A49206888420BD1102003F035
:1004100071FC184908600846006808B90120EEE739
:100420000020ECE71449206888420BD1102003F02B
:1004300061FC124908600846006808B90120DEE73F
:100440000020DCE70E49206888420BD1102003F021
:1004500051FC0C4908600846006808B90120CEE745
:100460000020CCE70120CAE70010014080000020F6
:100470000044004084000020004800408800002024
:10048000001401408C00002000BFFEE710B50248B8
:1004900000F0A9FC10BD0000B800002070B50546B2
:1004A000284600F053FA0446002060630021A1634F
:1004B000E16321646164A164012121650021E1649B
:1004C000012161650E21A16504F13401284600F087
:1004D00033FB70BD10B50446204600F037FA0346E2
:1004E0000BB9012010BD002098610021D9619962EB
:1004F00083F85C005D20C1545E20C1545F20C1546C
:100500006020C1546120C1546220C1546320C15491
:100510000020E7E710B50446204600F017FA03462E
:100520000BB9012010BD002018609860D860082029
:1005300018610020F6E72DE9F04106460D46174602
:100540000024304600F002FA044614B90120BDE848
:10055000F08125600020A060E06008202061012378
:100560003A462146304600F051FAF0E71CB5044601
:1005700000200090019001208DF80400F4208DF8F7
:10058000050004496A46086940F2FF11FFF7D3FFEE
:100590001CBD00005C40002010B5164816490860DC
:1005A00016484860164888601648C86016480861B2
:1005B000002010498860088088801020C8800020B2
:1005C0000E498860088088802020C88000200C495F
:1005D0008860088088803020C8800749086903F057
:1005E0005EFA0A49074803F099FA012000F010F872
:1005F00010BD0000704000205C4000207C400020C6
:100600008840002094400020B8000020A001002075
:1006100010B504461A4AB2F906101A4A106902F0D7
:10062000F7FC194AB2F90610164A106902F0F0FCFC
:10063000164AB2F90610134A106902F0E9FC4FF4A9
:10064000FA7003F08DFB0E4AB2F906100D4A1069DC
:10065000224602F0BFFB0C4AB2F90610094A1069A3
:10066000224602F0B7FB094AB2F90610054A1069A2
:10067000224602F0AFFB4FF4FA7003F071FB10BD9D
:10068000704000205C4000207C400020884000201A
:1006900070B504460D460349C86802F017FC0020F7
:1006A00070BD00005C40002070B504460D460CB9DA
:1006B000012070BD002020806080A080E08020723A
:1006C000607260810021A181E18121746174A17453
:1006D000E174A082E182A061152020775520607727
:1006E0002562217F0122284603F098F908B10120F4
:1006F000DFE70020DDE7000010B5024800F0F8FD5C
:1007000010BD00004002002010B5024800F0F0FDCE
:1007100010BD0000E00100200146087810381823C1
:10072000B0FBF3F20848805CC865032A05D9086865
:100730006FF30900001D886503E008686FF3090086
:100740008865886D70470000D85400080146002075
:100750008A6A8B69CBB932B1012A0DD0022A03D043
:10076000032A10D10EE000BFCB6A03F08073B3F10F
:10077000807F00D1012007E0CB6AB3F1C07F00D1B8
:10078000012001E000E000BF34E08B69B3F5005FB9
:100790001AD132B1012A07D0022A03D0032A11D17B
:1007A0000AE000BF01200EE0CB6A03F08073B3F1D2
:1007B000807F00D1012006E0CB6AB3F1C07F00D179
:1007C000012000E000BF15E032B1012A05D0022A65
:1007D00004D0032A0CD103E000BF00BF012008E0D1
:1007E000CB6A03F08073B3F1807F00D1012000E079
:1007F00000BF00BF704730B50468246824F480242B
:1008000005682C60046863608468402C04D1046827
:10081000A2600468E16003E00468A1600468E2602B
:1008200030BD000010B504463949206A03F067F96D
:1008300000286BD1364800783549497840EA0120D4
:10084000C0F30A0020802088A0F5806000B22080DC
:100850002F484078C0102E49897840EA4110C0F3F3
:100860000A0060806088A0F5806000B2608028483F
:10087000807880112649C97840EA810024490979A5
:1008800040EA8120C0F30A00A080A088A0F5806023
:1008900000B2A0801E48007940101D49497940EA05
:1008A000C110C0F30A00E080E088A0F5806000B2CB
:1008B000E080174840790011800820721448407980
:1008C000C0F301106072124880791149C97940EA79
:1008D000012000B260810E48007A0D49497A40EA51
:1008E000012001B2A1810A48807A0949C97A40EA07
:1008F000012001B2E1810648017B2174417B6174D2
:10090000807B0349C97B40EA0120A08210BD000022
:10091000D83F002070472DE9F0410746884614462D
:100920001D46002600BF0DE04146384600F0D4FFCA
:10093000284603F015FA01224146384600F0D0FF60
:10094000701CC6B2A642EFDBBDE8F0810146084A42
:100950000868904202D1074800687047064A086854
:10096000904202D105480068F7E70020F5E7000053
:1009700000640040900000200068004094000020C7
:1009800001460F4A0868904202D10E48006870473D
:100990000D4A0868904202D10C480068F7E70C4AFB
:1009A0000868904202D10B480068F0E70A4A0868DC
:1009B000904202D109480068E9E70020E7E700001B
:1009C000001001408000002000440040840000200E
:1009D0000048004088000020001401408C000020E6
:1009E000024692F82000012803D092F82000022845
:1009F00006D11068406908431368586100207047A9
:100A0000506A40F4802050620120F8E770B5044637
:100A10000D46A86800B900E000BF94F82000012846
:100A200003D094F8200002287FD12068806800F06D
:100A3000806050B92068806800F0006028B92068A4
:100A4000806800F08050002869D020688068C0F37A
:100A50000161012088401860A86850B92E88E868B4
:100A600040EA4656206800F5C07000EB01100660B1
:100A70000BE0D5E9016040EAC600EE683043266825
:100A800006F5C07606EB011630602E69206800F589
:100A9000C07000EB01104660287D01280DD1206850
:100AA00000F5C07000EB0110406840F480762068CB
:100AB00000F5C07000EB01104660D0790006967911
:100AC00040EA0640567940EA062610790643206837
:100AD00000F5C07000EB0110C660D0780006967873
:100AE00040EA0640567840EA0620167830432668E9
:100AF00006F5C07606EB0116B060206800F5C07000
:100B000000EB0110006840F00106206800F5C0709D
:100B100000EB01100660002070BD06E0FFE7606A90
:100B200040F4001060620120F6E7606A40F4802023
:100B300060620120F0E7000070B504460A46002319
:100B4000216894F82000012803D094F8200002289E
:100B50007CD1414901F50071086840F0010008604E
:100B6000086820F47C5008600868556A40EA05204F
:100B70000860157D012000FA05F3C8699843C86133
:100B8000A1F50071D069C8B9D1F80C029843C1F839
:100B90000C02908880B2958940EA054501F51070F5
:100BA000566940F83650108880B2158940EA0545EC
:100BB00001F51070566900EBC6004560D069012848
:100BC00019D1D1F80C021843C1F80C02908880B2F8
:100BD000158840EA054501F51070566940F8365011
:100BE000908980B2158940EA054501F51070566973
:100BF00000EBC6004560906928B9D1F8040298431B
:100C0000C1F8040204E0D1F804021843C1F8040258
:100C1000106928B9D1F814029843C1F8140204E00D
:100C2000D1F814021843C1F81402106A012804D143
:100C3000D1F81C021843C1F81C02D1F8000220F0C0
:100C40000100C1F80002002070BDFFE7606A40F4B7
:100C5000802060620120F7E700640040704730B5F3
:100C6000044694F82000012803D094F820000228BC
:100C70007DD151B92068C06800F0030090B9606A66
:100C800040F400106062012030BD01290AD12068C3
:100C9000006900F0030028B9606A40F40010606247
:100CA0000120F1E7206800F5D87000EB0110006822
:100CB00000F004009060906840B9206800F5D8709A
:100CC00000EB01100068400D106007E0206800F59F
:100CD000D87000EB01100068C0085060206800F573
:100CE000D87000EB0110006800F002004008D060EE
:100CF000206800F5D87000EB0110406800F00F008C
:100D00001061206800F5D87000EB0110406800F415
:100D10007F40000A9061206800F5D87000EB011058
:100D20004068000C5061206800F5D87000EB01109D
:100D300080681870206800F5D87000EB011080689A
:100D400000F47F40000A5870206800F5D87000EB6E
:100D50000110806800F47F00000C9870206800F596
:100D6000D87000EB01108068000ED87000E034E00D
:100D7000206800F5D87000EB0110C0681871206879
:100D800000F5D87000EB0110C06800F47F40000A45
:100D90005871206800F5D87000EB0110C06800F4AD
:100DA0007F00000C9871206800F5D87000EB0110EE
:100DB000C068000ED87131B92068C06840F02000CA
:100DC0002568E86007E0012905D12068006940F046
:100DD000200025682861002056E7606A40F48020E2
:100DE0006062012050E72DE9F05F0446002520688D
:100DF00046692068D0F80490206887682068D0F899
:100E00000CA02068D0F810B02068D0F8188006F048
:100E10000100002855D007F00100C0B10120216871
:100E2000886007F0020018B1204600F047FA0EE093
:100E300007F0040010B145F4006508E007F0080071
:100E400010B145F4805502E0204600F036FA07F470
:100E50008070C8B14FF480702168886007F400701A
:100E600018B1204600F02CFA0EE007F4806010B1B3
:100E700045F4005508E007F4006010B145F48045E2
:100E800002E0204600F01BFA07F48030C8B14FF4AE
:100E900080302168886007F4003018B1204600F0E7
:100EA00011FA0EE007F4802010B145F4004508E087
:100EB00007F4002010B145F4803502E0204600F030
:100EC00000FA06F0080038B10AF0100020B145F42D
:100ED000007510202168C86006F0040040B10AF0D7
:100EE000080028B108202168C860204600F094F965
:100EF00006F0020038B12068C06800F0030010B1AD
:100F0000204600F08BF906F0400038B10BF01000DD
:100F100020B145F4806510202168086106F02000AA
:100F200040B10BF0080028B1082021680861204674
:100F300000F090F906F0100038B12068006900F068
:100F4000030010B1204600F086F906F4003040B1ED
:100F500009F0100028B1102021684860204600F0F8
:100F60007BF906F4803040B109F0080028B1082070
:100F700021684860204600F0A6F906F4004088B3D6
:100F800009F0040078B306F4807020B108F0010085
:100F900008B145F0010506F4007020B108F0020028
:100FA00008B145F0020506F4806020B108F00400A5
:100FB00008B145F0040506F40060A0B108F0700027
:100FC00088B108F07000402817D006DC10280BD03C
:100FD00020280CD0302819D10CE0502810D06028DF
:100FE00014D110E01DE019E045F008050FE045F0D0
:100FF00010050CE045F0200509E045F0400506E04D
:1010000045F0800503E045F4807500E000BF00BFB7
:101010002068806920F070002168886104202168C0
:1010200048602DB1606A284360622046FFF716FED3
:10103000BDE8F09F70B5044600250CB9012070BDD5
:1010400094F8200010B9204600F0B0F8206800683D
:1010500020F002002168086000F048FC05460DE021
:1010600000F044FC401B0A2808D9606A40F40030B4
:101070006062052084F820000120E0E720684068D5
:1010800000F002000028EBD12068006840F0010069
:101090002168086000F02AFC05460DE000F026FCFF
:1010A000401B0A2808D9606A40F4003060620520BD
:1010B00084F820000120C2E72068406800F00100A9
:1010C0000028EBD0207E012806D12068006840F07F
:1010D00080002168086005E02068006820F080003A
:1010E00021680860607E012806D12068006840F011
:1010F00040002168086005E02068006820F040009A
:1011000021680860A07E012806D12068006840F0B0
:1011100020002168086005E02068006820F02000B9
:1011200021680860E07E012806D12068006820F070
:1011300010002168086005E02068006840F0100099
:1011400021680860207F012806D12068006840F0EF
:1011500008002168086005E02068006820F00800A9
:1011600021680860607F012806D12068006840F08F
:1011700004002168086005E02068006820F0040091
:1011800021680860D4E902010843216908436169C4
:1011900008436168491E08432168C86100206062F5
:1011A000012084F82000002049E7000010B586B037
:1011B000044616492068884225D100BF00200090CF
:1011C0001348006840F00070114908600846006844
:1011D00000F00070009000BF00BF032001900220CB
:1011E000029001200390032004900920059001A99A
:1011F000084800F063FA00220621142000F047FCA2
:10120000142000F037FC06B010BD00000064004060
:1012100040380240000C02407047000070B505469F
:101220002846FFF793FB044604F15C0304F118021F
:1012300000212846FFF713FD0549A06901F0E0FDF4
:1012400003480838E16D0160216E416070BD000007
:10125000D43F002070477047704770B504460025A2
:1012600094F82000012822D1022084F82000206870
:10127000006820F001002168086000F037FB054697
:101280000DE000F033FB401B0A2808D9606A40F4E7
:1012900000306062052084F82000012070BD2068C5
:1012A000406800F001000028EBD16062F6E7606A58
:1012B00040F4002060620120F0E7704770477047FB
:1012C0007047704770477047014691F83500022813
:1012D00003D08020486501207047052081F8350043
:1012E0000868006820F001000A6810600020F3E739
:1012F000F8B50446002000908C4800684FF4165161
:10130000B0FBF1F7A56D2E6894F85C1008208840BA
:10131000304098B12068006800F0040070B1206887
:10132000006820F004002168086094F85C10082030
:101330008840A860606D40F00100606594F85C1022
:1013400001208840304068B12068406900F080008A
:1013500040B194F85C1001208840A860606D40F0B6
:101360000200606594F85C1004208840304068B149
:101370002068006800F0020040B194F85C1004207E
:101380008840A860606D40F00400606594F85C10CF
:1013900010208840304078B32068006800F00800D2
:1013A00050B394F85C1010208840A8602068006852
:1013B00000F4802080B12068006800F4002028B983
:1013C000206CC8B12046216C884715E0A06C98B10C
:1013D0002046A16C88470FE02068006800F4807008
:1013E00028B92068006820F0080021680860206C97
:1013F00010B12046216C884794F85C10202088406A
:101400003040002865D02068006800F010000028F7
:101410005FD094F85C1020208840A86094F83500D4
:10142000052828D12068006820F01600216808608F
:101430002068406920F0800021684861206C08B96C
:10144000A06C28B12068006820F0080021680860BE
:1014500094F85C103F208840A86000BF002084F80A
:10146000340000BF012084F83500206D10B1204603
:10147000216D8847F8BD2068006800F4802080B1A5
:101480002068006800F4002028B9606C10B1204684
:10149000616C88471DE0E06BD8B12046E16B88475E
:1014A00017E02068006800F4807068B92068006860
:1014B00020F010002168086000BF002084F834008C
:1014C00000BF012084F83500E06B10B12046E16BCD
:1014D0008847606D38B3606D00F00100F0B1052001
:1014E00084F835002068006820F001002168086059
:1014F00000BF0098401C0090B84200D905E0206869
:10150000006800F001000028F3D100BF00BF0020F8
:1015100084F8340000BF012084F83500E06C10B17D
:101520002046E16C884700BFA4E7000010000020BF
:101530002DE9F0410446002500F0D8F9074614B91A
:101540000120BDE8F081606A00B100BF00BF00204B
:1015500084F8340000BF022084F835002068006859
:1015600020F00100216808600AE000F0BFF9C01B0C
:10157000052805D920206065032084F83500E0E7C0
:101580002068006800F001000028EED1206805689E
:1015900021480540D4E901010843E1680843216975
:1015A000084361690843A1690843E1690843216A66
:1015B00008430543606A042803D1D4E90B010843BA
:1015C0000543206805602068456925F00705606AC5
:1015D0000543606A04280DD1A06A0543E06A48B15A
:1015E0002046FFF7B3F828B140206065012084F859
:1015F0003500A6E7206845612046FFF78DF80646CE
:1016000094F85C103F208840B060002060650120A5
:1016100084F83500002094E73F8010F02DE9F04772
:1016200004460D4616461F464FF00008D4F8589061
:1016300000BF94F83400012802D10220BDE8F087F1
:10164000012084F8340000BF94F8350001282BD124
:10165000022084F83500002060653B46324629466A
:101660002046FFF7C8F894F85C103F208840C9F87E
:1016700008002068006840F01600216808602068B3
:10168000406940F0800021684861206C28B12068E2
:10169000006840F00800216808602068006840F099
:1016A00001002168086006E000BF002084F83400D3
:1016B00000BF4FF002084046C0E70000F8B5024600
:1016C0000B460025002400200021E6E0012606FA52
:1016D00001F51E6806EA0504AC4273D15E68022E6D
:1016E00002D05E68122E13D1CF0802F1200656F800
:1016F00027004E07F70E0F26BE40B0434F07FF0EE0
:101700001E69BE403043CF0802F1200646F827008C
:1017100010684F000326BE40B0431E7906F0030652
:101720004F00BE40304310605E68012E08D05E68F6
:10173000022E05D05E68112E02D05E68122E13D1E3
:1017400090684F000326BE40B0434F00DE68BE40A5
:1017500030439060506801268E40B0431E79C6F336
:1017600000168E4030435060D0684F000326BE40C4
:10177000B0434F009E68BE403043D0605E6806F0C4
:101780008056B6F1805FA8D100BF00260096454E76
:10179000366846F48046434F3E603E46366806F45F
:1017A0008046009600BF00BF3F4E8F0856F82700C6
:1017B0008E07370F0F26BE40B0433C4EB24202D1D7
:1017C00000262EE068E03A4EB24201D1012628E020
:1017D000384EB24201D1022623E0374EB24201D147
:1017E00003261EE0354EB24201D1042619E0344EE4
:1017F000B24201D1052614E0324EB24201D1062692
:101800000FE0314EB24201D107260AE02F4EB2421C
:1018100001D1082605E02E4EB24201D1092600E092
:101820000A268F073F0FBE4030431F4E8F0846F8F1
:101830002700284E3068A0435E6806F48036B6F56F
:10184000803F00D12043234E3060361D3068A043D6
:101850005E6806F40036B6F5003F00D120431D4E09
:10186000361D3060361D3068A0435E6806F4801671
:10187000B6F5801F00D12043164E08363060361D65
:101880003068A0435E6806F40016B6F5001F00D16C
:101890002043104E0C363060491C1029FFF416AF5F
:1018A000F8BD000044380240083801400000024002
:1018B0000004024000080240000C024000100240F8
:1018C0000014024000180240001C024000200240A8
:1018D00000240240003C014042694A404261704796
:1018E0000AB1816101E00B0483617047014800681F
:1018F000704700000400002003480068034909788D
:101900000844014908607047040000200C000020D2
:1019100010B50D48006840F400700B490860084697
:10192000006840F4806008600846006840F48070F9
:101930000860032000F0EAF8002000F007F800F04B
:101940004BF8002010BD0000003C024070B588B08C
:10195000044600250026002221462C2000F097F89E
:101960002C2000F087F800BF002001901648006886
:1019700040F00200144908600846006800F00200C8
:10198000019000BF00BF02A903A800F0D9F900F040
:101990000FFA45000D48B5FBF0F0461E0C480D4906
:1019A000086040F2E7310B48C160466000210161E8
:1019B000816000F0B9FC20B9064800F0D0FC08B006
:1019C00070BD0120FBE700004438024040420F0098
:1019D00000040140A002002008B500BF00200090D4
:1019E0002348006840F480402149086008460068A8
:1019F00000F48040009000BF00BF00BF00200090B6
:101A0000081F006840F08050091F08600846006801
:101A100000F08050009000BF00BF032000F076F877
:101A2000002211466FF00B0000F031F80022114641
:101A30006FF00A0000F02BF8002211466FF0090049
:101A400000F025F800221146501F00F020F8002277
:101A50001146101F00F01BF800220F21901E00F00D
:101A600016F800220F21501E00F011F808BD0000EA
:101A70004438024000BF00F01F020121914042099A
:101A8000920002F1E022C2F8001100BF70472DE978
:101A9000F05F80460D461646002701F0BDF9074667
:101AA00039462A46334601F00700C0F1070ABAF169
:101AB000040F02D94FF0040A01E0C0F1070AD14631
:101AC00000F1040ABAF1070F02D24FF0000A01E058
:101AD000A0F1030AD4464FF0010A0AFA09FAAAF162
:101AE000010A0AEA020A0AFA0CFA4FF0010B0BFA91
:101AF0000CFBABF1010B0BEA030B4AEA0B0421468A
:101B0000404601F091F9BDE8F09F000000BF00F0F1
:101B10000702064B19684FF6FF031940044B0B43AD
:101B200043EA0221014B196000BF70470CED00E051
:101B30000000FA0538B5002400BF002000901D48C1
:101B4000006840F080501B4908600846006800F0BB
:101B50008050009000BF00BF012017490864FFF7C4
:101B6000C5FE044607E0FFF7C1FE001BB0F57A7F13
:101B700001D9032038BD1148406800F48030B0F529
:101B8000803FF0D101200C494864FFF7AFFE0446C6
:101B900007E0FFF7ABFE001BB0F57A7F01D9032009
:101BA000E8E70648406800F40030B0F5003FF0D1A7
:101BB0000020DFE74038024000000E420070004085
:101BC00070B504460D460CB9012070BD5848006838
:101BD00000F00F00A84209D255490D700846006870
:101BE00000F00F00A84201D00120EEE7207800F0BD
:101BF000020002281DD1207800F00400042805D13D
:101C00004C48006840F4E0504A490860207800F0F1
:101C10000800082805D14748006840F4604045495D
:101C200008604448006820F0F000A168084341497A
:101C30000860207800F00100A8B36068012807D18F
:101C40003C4808380068C0F34040B8B90120BCE700
:101C50006068022802D06068032807D13548083838
:101C60000068C0F3406048B90120AEE73148083849
:101C70000068C0F3400008B90120A6E72D480068BD
:101C800020F00300616808432A490860FFF72EFE30
:101C9000064609E0FFF72AFE801B41F288318842A0
:101CA00002D9032091E707E02248006800F00C0009
:101CB0006168B0EB810FEDD11D48006800F00F00A6
:101CC000A84209D91A490D700846006800F00F00B3
:101CD000A84201D0012078E7207800F00400042811
:101CE00007D11448006820F4E050E1680843114926
:101CF0000860207800F00800082808D10D48006826
:101D000020F46040216940EAC1000A49086000F0FF
:101D10005FF808490968C1F30311074A515CC840DC
:101D2000064908600020FFF711FE00204DE7000083
:101D3000003C024008380240E05400081000002037
:101D40000F2202600D4A126802F0030242600B4A41
:101D5000126802F0F0028260084A126802F4E0524F
:101D6000C260064A126802F46042D2080261044A64
:101D7000126802F00F020A60704700000838024043
:101D8000003C02400148006870470000100000203D
:101D900000B5FFF7F7FF04490968C1F38221034A40
:101DA000515CC84000BD000008380240F0540008F3
:101DB00000B5FFF7E7FF04490968C1F34231034A60
:101DC000515CC84000BD000008380240F0540008D3
:101DD0002DE9F047002400250026A146254800688B
:101DE00000F00C0020B1042805D008283AD105E005
:101DF000DFF8849039E0DFF8849036E01D48001F5A
:101E0000006800F03F041B48001F006800F48000D9
:101E100078B11A481749091F0968C1F38811A0FB56
:101E200001700146224600233846FEF739FA05467E
:101E30000EE011480F49091F0968C1F38811A0FB82
:101E400001700146224600233846FEF729FA05466E
:101E50000848001F0068C0F30140401C4600B5FB65
:101E6000F6F902E0DFF8109000BF00BF4846BDE879
:101E7000F0870000083802400024F400001BB7007F
:101E8000F8B504460CB90120F8BD207800F0010037
:101E9000002874D0F948006800F00C0004280DD028
:101EA000F648006800F00C00082813D1F348001F22
:101EB000006800F48000B0F5800F0BD1EF480838BF
:101EC0000068C0F34040002859D06068002856D10F
:101ED0000120D9E700BF6068B0F5803F08D1E7482E
:101EE0000838006840F48030E449083908601EE092
:101EF0006068B0F5A02F0DD1E0480838006840F4C4
:101F00008020DE49083908600846006840F48030C7
:101F100008600CE0D9480838006820F48030D749C0
:101F2000083908600846006820F48020086000BF77
:101F3000606890B1FFF7DAFC054606E0FFF7D6FCD3
:101F4000401B642801D903209EE7CC48083800686C
:101F5000C0F340400028F1D011E0FFF7C7FC054670
:101F600006E0FFF7C3FC401B642801D903208BE780
:101F7000C24808380068C0F340400028F1D12078FA
:101F800000F0020002285FD1BC48006800F00C009D
:101F900058B1BA48006800F00C0008281CD1B748B6
:101FA000001F006800F48000B0B9B4480838006829
:101FB000C0F3400020B1E068012801D0012063E7B0
:101FC000AE480838006820F0F800216940EAC100F6
:101FD000AA490839086037E0E06800B30120A84941
:101FE0000860FFF783FC054606E0FFF77FFC401B17
:101FF000022801D9032047E7A04808380068C0F349
:1020000040000028F1D09D480838006820F0F80012
:10201000216940EAC10099490839086014E00020AC
:1020200097490860FFF762FC054606E0FFF75EFC93
:10203000401B022801D9032026E790480838006891
:10204000C0F340000028F1D1207800F008000828F3
:102050002CD16069A8B101208A490860FFF746FCCD
:10206000054606E0FFF742FC401B022801D9032089
:102070000AE782486C300068C0F340000028F1D0C5
:1020800014E000207F490860FFF730FC054606E0B9
:10209000FFF72CFC401B022801D90320F4E6774807
:1020A0006C300068C0F340000028F1D1207800F0C7
:1020B0000400042870D1002670483830006800F011
:1020C000805090B900BF002000906C483830006804
:1020D00040F080506949383108600846006800F0D7
:1020E0008050009000BF00BF01266748006800F4E0
:1020F0008070B0B96448006840F48070624908603C
:10210000FFF7F4FB054606E0FFF7F0FB401B022853
:1021100001D90320B8E65C48006800F4807000280C
:10212000F2D000BFA068012808D154486830006888
:1021300040F001005149683108601DE0A0680528A1
:102140000DD14E486830006840F004004B496831BA
:1021500008600846006840F0010008600CE047484D
:102160006830006820F00100444968310860084682
:10217000006820F00400086000BFA068A8B1FFF765
:10218000B5FB054609E0FFF7B1FB401B41F2883182
:10219000884202D9032077E626E038486830006894
:1021A000C0F340000028EED013E0FFF79FFB054688
:1021B00008E0FFF79BFB401B41F28831884201D9C0
:1021C000032061E62D4868300068C0F34000002815
:1021D000EFD1012E07D129483830006820F0805017
:1021E00026493831086000BFA069B8B323480068A9
:1021F00000F00C0008285ED0A069022846D100201B
:102200001F490866FFF772FB054606E0FFF76EFB05
:10221000401B022801D9032036E618480838006818
:10222000C0F340600028F1D1D4E907010843616A96
:1022300040EA81110122A06AC2EB500041EA00414C
:102240002C20005D41EA00600C49091F0860012054
:102250000B490866FFF74AFB054607E02DE0FFF74C
:1022600045FB401B022801D903200DE6034808382E
:102270000068C0F340600028F1D01EE0083802403A
:1022800000004742800E47420070004000200C4989
:102290000866FFF72BFB054606E0FFF727FB401B10
:1022A000022801D90320EFE506480068C0F340602A
:1022B0000028F2D101E00120E6E50020E4E500007D
:1022C0000000474200380240042808D14FF0E021C6
:1022D000096941F004014FF0E022116107E04FF07D
:1022E000E021096921F004014FF0E02211617047FB
:1022F00070B504462546681EB0F1807F01D30120E9
:102300000FE0681E4FF0E02148610F214FF0FF30D1
:1023100000F08AFD00204FF0E0218861072008616D
:10232000002070BD7047704710B504460CB90120FD
:1023300010BD94F8390028B9002084F838002046F0
:1023400000F00CF8022084F83900211D206800F00C
:10235000E3FF012084F839000020E9E770470146D7
:102360000868C06840F001000A68D060086800682A
:1023700040F001000A68106000207047704710B5F7
:10238000044620680069C0F34000D8B12068C068E6
:10239000C0F34000B0B16FF0020021680861012075
:1023A00020762068806900F0030018B12046FFF70E
:1023B000E5FF05E0204600F0ADF8204600F0ABF860
:1023C0000020207620680069C0F38000D8B1206822
:1023D000C068C0F38000B0B16FF0040021680861EC
:1023E000022020762068806900F4407018B12046F1
:1023F000FFF7C4FF05E0204600F08CF8204600F00F
:102400008AF80020207620680069C0F3C000D8B1A7
:102410002068C068C0F3C000B0B16FF00800216848
:102420000861042020762068C06900F0030018B11C
:102430002046FFF7A3FF05E0204600F06BF820469A
:1024400000F069F80020207620680069C0F30010D1
:10245000D8B12068C068C0F30010B0B16FF01000B0
:1024600021680861082020762068C06900F4407067
:1024700018B12046FFF782FF05E0204600F04AF839
:10248000204600F048F8002020762068006900F01F
:10249000010058B12068C06800F0010030B16FF051
:1024A000010021680861204600F036F820680069C4
:1024B000C0F3C01058B12068C068C0F3C01030B17C
:1024C0006FF08000216808612046FFF72BFF20682D
:1024D0000069C0F3801058B12068C068C0F3801054
:1024E00030B16FF0400021680861204600F020F80C
:1024F00020680069C0F3401058B12068C068C0F37C
:10250000401030B16FF02000216808612046FFF7CD
:102510000AFF10BD7047704710B504460349206894
:10252000884201D1FFF7E8F910BD00000004014026
:10253000704770472DE9F047044620680568206819
:10254000C668206847694FF00008C14605F00F08CB
:10255000B8F1000F0AD105F0200038B106F02000D4
:1025600020B1204600F0D0FFBDE8F087B8F1000FA1
:102570006DD007F0010018B906F49070002866D0FD
:1025800005F0010030B106F4807018B1E06B40F046
:102590000100E06305F0040030B107F0010018B15C
:1025A000E06B40F00200E06305F0020030B107F09C
:1025B000010018B1E06B40F00400E06305F0080092
:1025C00030B107F0010018B1E06B40F00800E063A3
:1025D000E06B68B305F0200028B106F0200010B1D0
:1025E000204600F091FF20684069C0F38019E06B3D
:1025F00000F0080010B9B9F1000F22D0204600F019
:1026000059FF2068406900F04000B0B1206840697F
:1026100020F0400021684861606B50B11748616B41
:102620000865606BFEF750FE10B1606B016D884766
:102630000CE02046FFF77DFF08E02046FFF779FF1A
:1026400004E02046FFF775FF0020E0638CE705F00B
:10265000800030B106F0800018B1204601F056F934
:1026600082E705F0400030B106F0400018B1204686
:1026700000F030FF78E700BF76E70000FD33000888
:1026800010B504460CB9012010BDA06900B100E0EE
:1026900000BF94F8390028B9002084F8380020469B
:1026A00000F028F8242084F839002068C06820F45D
:1026B00000502168C860204600F074FF206800695F
:1026C00020F49040216808612068406920F02A00C9
:1026D000216848612068C06840F400502168C860E3
:1026E0000020E063202084F8390084F83A000020BC
:1026F000CAE7000010B586B00446774920688842D2
:1027000048D100BF002000907448006840F01000DD
:10271000724908600846006800F01000009000BF91
:1027200000BFC020019002200290012003900320EE
:1027300004900720059001A96948FEF7BFFF69488A
:10274000694908604FF00060486000216648816078
:10275000C1604FF480610161002141618161C1610B
:102760004FF40031016200214162FEF7E1FE18B131
:10277000BE215EA001F054FA00BF5B486063846331
:1027800000BF002205212520FFF781F92520FFF752
:1027900071F99FE05C492068884220D100BF002089
:1027A00000904E48001F006840F400304B49091F5C
:1027B00008600846006800F40030009000BF00BFC9
:1027C00060200190022002900120039003200490D9
:1027D0000720059001A94D48FEF770FF7AE04C49AB
:1027E0002068884229D100BF002000903B48001F8C
:1027F000006840F480203949091F086008460068D5
:1028000000F48020009000BF00BF4FF440700190A2
:1028100002200290012003900320049007200590DD
:1028200001A93A48FEF74AFF002207212720FFF7B7
:102830002EF92720FFF71EF94CE036492068884220
:1028400048D100BF002000902448006840F02000DC
:10285000224908600846006800F02000009000BF90
:1028600000BFC020019002200290012003900320AD
:1028700004900820059001A92748FEF71FFF19487A
:102880001838264908608005486000212348816087
:10289000C1604FF480610161002141618161C161CA
:1028A0004FF48031016200214162FEF741FE20B108
:1028B0004FF48E710DA001F0B3F900BF17486063AB
:1028C000846300BF002207214720FFF7E0F847207C
:1028D000FFF7D0F806B010BD0010014044380240A8
:1028E0000004024040640240E00100202E2E2F53DD
:1028F00072632F73746D3332663478785F68616CFD
:102900005F6D73702E63000000440040000C0240B5
:10291000004800400014014000080240400200202E
:1029200077B581B00446154694F83A00202850D176
:10293000029800B115B9012004B070BD00BF94F831
:102940003800012801D10220F6E7012084F8380080
:1029500000BF0298A062A5850020E063222084F8D1
:102960003A001D48616BC8631C48616B08641C48D1
:10297000616BC8640020616B086502AE3268236831
:10298000191D2B46606BFEF749FE00BF002000902A
:1029900020680068009020684068009000BF00BF79
:1029A00000BF002084F8380000BF2068C06840F4F1
:1029B00080702168C8602068406940F0010021688B
:1029C00048612068406940F040002168486100206B
:1029D000B2E70220B0E7000061340008A734000825
:1029E00011340008704770472DE9F84304460D463E
:1029F00016461F464FF0000994F8390020285CD194
:102A000005B116B90120BDE8F88300BF94F838007D
:102A1000012801D10220F6E7012084F8380000BF28
:102A20000020E063212084F83900FEF75FFF814633
:102A3000A684E6842BE0E08C401EE084A068B0F51C
:102A4000805F16D14B46002280212046009700F07F
:102A500091FF08B10320D6E7A846B8F80000C0F3FC
:102A6000080021684860206908B9AD1C0FE06D1CA2
:102A70000DE04B46002280212046009700F07AFFAF
:102A800008B10320BFE715F8010B21684860E08C0E
:102A90000028D0D14B46002240212046009700F06C
:102AA00069FF08B10320AEE7202084F8390000BF99
:102AB000002084F8380000BFA5E70220A3E7704794
:102AC00000BFFEE710B510481049086009204860B3
:102AD00000210E4881604FF04071C1604FF4803199
:102AE0000161090141610021017641768176C1765B
:102AF00001774177FEF79EFA20B140F2071104A05A
:102B000001F08EF810BD000000640040B800002005
:102B10002E2E2F5372632F6D61696E2E630000009D
:102B200008B500BF002000900E48006840F4800007
:102B30000C4908600846006800F48000009000BF5F
:102B400000BF002205213920FEF7A1FF3920FEF742
:102B500091FF002205213A20FEF799FF3A20FEF767
:102B600089FF08BD3038024000B587B000BF0020A3
:102B700001904648006840F040004449086008461B
:102B8000006800F04000019000BF00BF00BF0020BF
:102B900001900846006840F001000860084600689F
:102BA00000F00100019000BF00BF00BF00200190B5
:102BB0000846006840F0020008600846006800F01F
:102BC0000200019000BF00BF00BF00200190084636
:102BD000006840F0080008600846006800F008003F
:102BE000019000BF00BF00BF0020019008460068B0
:102BF00040F0800008600846006800F08000019006
:102C000000BF00BF00BF002001900846006840F0F0
:102C1000040008600846006800F00400019000BF4E
:102C200000BF00BF002001900846006840F010007F
:102C300008600846006800F01000019000BF00BF67
:102C4000012251031248FEF74BFE01224FF47E4150
:102C50001048FEF745FE4FF400500290012003900B
:102C600000200490059002A90948FEF727FD4FF4C3
:102C70007E4002900120039000200490059002A95C
:102C80000448FEF71BFD07B000BD000030380240CD
:102C9000001802400010024010B50D480D490860B0
:102CA0000D48486000210B488160C1604FF480618D
:102CB00001610C21416100218161C161FFF7E0FCEC
:102CC00020B14FF48D7105A000F0AAFF10BD0000E7
:102CD00000100140E0000020A08601002E2E2F539E
:102CE00072632F6D61696E2E6300000010B50C4891
:102CF0000C4908604FF4E1304860002109488160C8
:102D0000C16001610C21416100218161C161FFF756
:102D1000B7FC20B140F22D1103A000F081FF10BDDF
:102D200000440040200100202E2E2F5372632F6D8F
:102D300061696E2E6300000010B50C480C490860F4
:102D40004FF4E1304860002109488160C1600161B1
:102D50000C21416100218161C161FFF791FC20B12B
:102D60004FF4A07103A000F05BFF10BD00480040CD
:102D7000600100202E2E2F5372632F6D61696E2E1D
:102D80006300000010B50C480C4908604FF4E130B6
:102D90004860002109488160C16001610C214161E6
:102DA00000218161C161FFF76BFC20B140F253113A
:102DB00003A000F035FF10BD00140140A001002069
:102DC0002E2E2F5372632F6D61696E2E63000000EB
:102DD00000BFFEE72DE9FC4107460C4615460126DB
:102DE0002643064903C9CDE900018DF800506A4623
:102DF00031463846FDF79FFBBDE8FC8100550008D1
:102E000003B56846C2780A7082784A7042788A7040
:102E10000278CA700CBD704702480068C0F30220F7
:102E2000704700000CED00E010B5002807DA0A0733
:102E3000140E054A00F00F031B1FD45403E00A07C9
:102E4000130E024A135410BD18ED00E000E400E038
:102E500038B5054600242846FDF792FD04460CB916
:102E6000012038BD207A012801D00120F9E700BFF8
:102E70000020009028680068009028684068009052
:102E800000BF00BF686B0068406803280CD1617800
:102E9000606800F09DF808B10120E2E700231A46BF
:102EA0006168E06802F036F8627828466168FFF7EA
:102EB00037FD0020D5E7000010B500240249204668
:102EC000FDF7E6FB10BD0000CC3F0020F0B587B059
:102ED000044600262B4D0194201D0290001D0390F6
:102EE000001D0490001D0590001D069004F12C07A4
:102EF0002946A06A00F003FE002840D128780D285A
:102F00003AD168780A2837D1A87E0A2834D1E87ED9
:102F10000D2831D100BF05E0B01C285C1A49885546
:102F2000701CC6B2182EF7DB174890ED000A019806
:102F300080ED000A144890ED010A029880ED000A25
:102F4000114890ED020A039880ED000A0E4890EDBA
:102F5000030A049880ED000A0B4890ED040A0598D6
:102F600080ED000A084890ED050A069880ED000AF9
:102F70000020387007B0F0BD01203870FAE701205A
:102F8000F8E70000F03F0020444000202DE9F04128
:102F900007460D460024002600BF10E004F109009A
:102FA000012101FA00F0304386B200223146384652
:102FB000FEF796FC284600F0D3FE601CC4B2072C36
:102FC000ECDB012231463846FEF78AFCBDE8F08191
:102FD00038B50246042901DA012038BD5525C81E3E
:102FE0001554002307E0D05CBDF80050284480B29F
:102FF0000090581CC3B2881E9842F4DC6C462578B9
:10300000481E15546578881E15540020E5E7000019
:103010007CB506460C4600252543054903C9CDE984
:1030200000016A4629463046FDF785FA7CBD00005E
:10303000F8540008FDF7B0FA00BF074800780128EF
:1030400006D10648FDF792FA032000F089FEF4E766
:10305000012000F085FEF0E7AD000020C840002010
:1030600000BF012000F07CFEFBE7000000BF0E481F
:103070000078012814D164230222C1030B48FDF714
:103080004AFC0B480078012806D164230222410241
:103090000648FDF740FCEAE7012000F061FEE6E7A4
:1030A000012000F05DFEE2E7AD00002000100240CC
:1030B000AC0000200B490C48FDF7F6FA00BF0B48A6
:1030C000007801280AD1FFF7F7FE0748FDF7AAFBB1
:1030D00001200749087000F043FEF0E7012000F0EE
:1030E0003FFEECE7E0000020C8400020AD000020DB
:1030F000AC00002090B000BF0020194908701422D5
:1031000018490BA8FDF7FDF800210BA800F041FEBF
:103110001549086014221349143106A8FDF7F1F887
:10312000002106A800F035FE1049086014220D4960
:10313000283101A8FDF7E5F8002101A800F029FEDB
:103140000B4908604FF4FA710A48FFF71FFF01208E
:10315000034908700848006801F02CFBCCE7000028
:10316000AD0000201C5500089C000020A00000209D
:10317000A4000020001002409800002010B500F0CC
:1031800001F810BD00B585B0142206496846FDF768
:10319000B8F80021684600F0FCFD0349086005B05E
:1031A00000BD0000085500089800002010B500F090
:1031B000E8FD10BD10B592B000BF0020009033486C
:1031C000006840F08050314908600846006800F00F
:1031D0008050009000BF00BF00BF002000902C482E
:1031E000006840F440402A4908600846006800F43E
:1031F0004040009000BF00BF0220069001200990CF
:1032000010200A9002200C9000210D9108210E91AF
:10321000B4210F91022110910421119106A8FEF70B
:103220002FFE18B1D1211BA000F0FAFCFEF782FCA2
:1032300018B1D82117A000F0F3FC0F200190022054
:103240000290002003904FF4A05004904FF480505F
:103250000590052101A8FEF7B3FC18B1E6210DA0E9
:1032600000F0DEFCFEF78EFD4FF47A71B0FBF1F456
:103270002046FFF73DF80420FFF726F800220F2133
:10328000501EFEF704FC12B010BD00004038024092
:10329000007000402E2E2F5372632F6D61696E2EC9
:1032A000630000001448006840F470001249086090
:1032B0001248006840F001001049086000200F49E2
:1032C000083108600D4800680D4908400B49086046
:1032D0000C48091D0860081F006820F48020091FA1
:1032E0000860002005490C3108604FF00060024979
:1032F000803908607047000088ED00E00038024027
:10330000FFFFF6FE1030002410B50248FFF737F833
:1033100010BD0000A0020020002202682C4B984241
:103320000ED0B0F1804F0BD02A4B984208D02A4BD8
:10333000984205D0294B984202D0294B984201D19E
:10334000012300E000231BB122F070024B681A43F6
:103350001F4B984220D0B0F1804F1DD01D4B98429A
:103360001AD01D4B984217D01C4B984214D01C4BBE
:10337000984211D01B4B98420ED01B4B98420BD059
:103380001A4B984208D01A4B984205D0194B9842D4
:1033900002D0194B984201D1012300E000231BB158
:1033A00022F44072CB681A4302608B68C3620B68D8
:1033B0008362074B984202D0094B984201D1012306
:1033C00000E000230BB10B690363012343617047E5
:1033D000000001400004004000080040000C0040D4
:1033E0000004014000400140004401400048014009
:1033F00000180040001C00400020004070B5054649
:10340000AC6B0020E085E0842046FFF792F870BDA9
:1034100070B506460025B46B20684069C0F3C0153E
:1034200094F83900212805D125B10020E0842046F8
:1034300000F060F820684069C0F3801594F83A0005
:10344000222805D125B10020E085204600F032F881
:10345000E06B40F01000E0632046FFF76AF870BDB3
:1034600070B50546AC6B2868006800F48070B0B990
:103470000020E0852068C06820F480702168C86062
:103480002068406920F00100216848612068406997
:1034900020F0400021684861202084F83A0020464E
:1034A000FFF7A0FA70BD70B50446A56B2846FFF77C
:1034B0009AFA70BD0168C96821F490710268D16000
:1034C0000168496921F0010102685161202180F8F9
:1034D0003A10704710B504462068C06820F04000DC
:1034E0002168C860202084F839002046FFF7E7FAF9
:1034F000002010BD0168C96821F0C0010268D160D8
:10350000202180F83910704770B5044694F83A00CD
:10351000222844D1A068B0F5805F13D1A56A206944
:1035200040B920684068C0F308002880A06A801C69
:10353000A06219E020684068C0B22880A06A401CE0
:10354000A06211E0206938B920684068C1B2A26A5F
:10355000501CA062117007E02068406800F07F01F5
:10356000A26A501CA0621170E08D401E80B2E085FE
:1035700098B92068C06820F490702168C8602068FD
:10358000406920F0010021684861202084F83A0059
:103590002046FFF727FA002070BD0020FCE702203C
:1035A000FAE700002DE9F04104460025206805698E
:1035B00025F44055E0680543206805612068C5682A
:1035C00049F20C6085432169A0680843616908439A
:1035D000E169084305432068C5602068456925F412
:1035E0004075A069054320684561E069B0F5004F6A
:1035F0007ED1C4492068884203D0C34920688842EC
:103600005DD1FEF7D5FB00EBC00101EB0010616856
:103610004900B0FBF1F06421B0FBF1F00601FEF7C8
:10362000C7FB00EBC00101EB001061684900B0FB73
:10363000F1F7FEF7BDFB00EBC00101EB0010616884
:103640004900B0FBF1F06421B0FBF1F000EBC001E8
:1036500001EB0010A7EB8000322101EBC0006421D8
:10366000B0FBF1F000F0F80006EB4006FEF7A0FB1F
:1036700000EBC00101EB001061684900B0FBF1F7FD
:10368000FEF796FB00EBC00101EB001061684900FA
:10369000B0FBF1F06421B0FBF1F000EBC00101EBF5
:1036A0000010A7EB8000322101EBC0006421B0FBC9
:1036B000F1F000F0070030442168886020E1FEF757
:1036C00067FB00EBC00101EB001061684900B0FB33
:1036D000F1F06421B0FBF1F00601FEF759FB00EBBD
:1036E000C00101EB001061684900B0FBF1F700E098
:1036F00045E0FEF74DFB00EBC00101EB00106168F7
:103700004900B0FBF1F06421B0FBF1F000EBC00127
:1037100001EB0010A7EB8000322101EBC000642117
:10372000B0FBF1F000F0F80006EB4006FEF730FBCE
:1037300000EBC00101EB001061684900B0FBF1F73C
:10374000FEF726FB00EBC00101EB001061684900A9
:10375000B0FBF1F06421B0FBF1F000EBC00101EB34
:103760000010A7EB8000322101EBC0006421B0FB08
:10377000F1F000F00700304421688860C0E0614942
:103780002068884203D06049206888425CD1FEF7F7
:103790000FFB00EBC00101EB001061688900B0FB7A
:1037A000F1F6FEF705FB00EBC00101EB00106168CC
:1037B0008900B0FBF1F06421B0FBF1F000EBC00137
:1037C00001EB0010A6EB8000322101EB0010642118
:1037D000B0FBF1F000F0F006FEF7EAFA00EBC001F2
:1037E00001EB001061688900B0FBF1F06421B0FBCF
:1037F000F1F006EB0016FEF7DBFA00EBC00101EB7F
:10380000001061688900B0FBF1F7FEF7D1FA00EB18
:10381000C00101EB001061688900B0FBF1F0642188
:10382000B0FBF1F000EBC00101EB0010A7EB800052
:10383000322101EB00106421B0FBF1F000F00F0029
:103840003044216888605BE0FEF7A2FA00EBC0011B
:1038500001EB001061688900B0FBF1F6FEF798FA01
:1038600000EBC00101EB001061688900B0FBF1F0D2
:103870006421B0FBF1F000EBC00101EB0010A6EBFE
:103880008000322101EB00106421B0FBF1F000F068
:10389000F006FEF77DFA00EBC00101EB0010616855
:1038A0008900B0FBF1F06421B0FBF1F006EB0016EB
:1038B000FEF76EFA00EBC00101EB001061688900B1
:1038C000B0FBF1F7FEF764FA00EBC00101EB00106A
:1038D00061688900B0FBF1F06421B0FBF1F000EB0E
:1038E000C00101EB0010A7EB8000322101EB0010BA
:1038F0006421B0FBF1F000F00F00304421688860D3
:10390000BDE8F0810010014000140140014691F82B
:10391000390021282CD18868B0F5805F0FD10A6A60
:103920001088C0F308000B685860086918B9086A65
:10393000801C086209E0086A401C086205E00B6A06
:10394000581C086218780B685860C88C401E80B2FA
:10395000C88458B90868C06820F080000B68D86037
:103960000868C06840F040000B68D86000207047CD
:103970000220FCE72DE9F04104460D461746984623
:10398000069E21E0701CF8B12EB1FDF7AFFFA0EB51
:103990000800B04218D92068C06820F4D0702168AF
:1039A000C8602068406920F001002168486120203B
:1039B00084F8390084F83A0000BF002084F8380009
:1039C00000BF0320BDE8F081206800682840A842BD
:1039D00001D1012000E00020B842D3D00020F1E75F
:1039E00010B5034800F085F80148FEF7A3FD10BDAF
:1039F000E000002010B50248FEF79CFD10BD00005D
:103A00006001002010B5034800F073F80148FEF78C
:103A100091FD10BDA001002000BFFEE72DE9F0419F
:103A200005460E4617462846FCF7DAFC28B1204624
:103A300000F008F90120BDE8F0812846FCF7A0FF5E
:103A400004460020E06066702772607800F052F94A
:103A500060602868C06840F010002968C86062781B
:103A60000521204600F00BF838B1606800F0EAF854
:103A7000204600F0E7F80120DDE70020DBE770B525
:103A800004460D46164600223146284601F0E8F865
:103A9000E060E06808B9012070BD0020FCE770B567
:103AA00004462046FCF752FF05462046FCF76CFC16
:103AB00020B1284600F0C6F8012070BD2046FCF772
:103AC000EDFC08B10120F8E72046FCF723FD08B122
:103AD0000120F2E72046FCF7FDFC08B10120ECE7ED
:103AE0002046FDF7BAFB02212046FCF779FF0020B3
:103AF000E3E710B504462046FFF7AAF910BD70B5FC
:103B000004460D462046FCF73BFF064600230122F3
:103B10002946F06801F0D0F8002070BD70B5044669
:103B20000D462CB92A48006829490860012070BD5B
:103B30002748006840F0010025490860A562A06A96
:103B4000A84209D0A06A38B92248006840F00400B1
:103B5000204908600120EAE79FED1F0A84ED000A72
:103B60009FED1D0A84ED010A9FED1B0A84ED020AF8
:103B70009FED190A84ED030A9FED170A84ED040AEC
:103B80009FED150A84ED050A9FED130A84ED060AE0
:103B90009FED110A84ED070A9FED0F0A84ED080AD4
:103BA0000E4860620E4820630020E08584F82C00F7
:103BB000284600F017F808B10120B8E701221F21BC
:103BC0002846FFF72BFF08B10120B0E70020AEE741
:103BD0007C0000207800002000000000F03F002062
:103BE0001040002038B505460BA000680090002466
:103BF00000BF07E01423042269462846FEF7F4FEBE
:103C0000601CC4B2652CF5DB0448006840F48040B9
:103C100002490860002038BD414354307400002040
:103C200000BFFEE702E008C8121F08C1002AFAD14F
:103C300070477047002001E001C1121F002AFBD12C
:103C40007047000010B5002821D0114B0022001F42
:103C5000196803E0814203D80A4649680029F9D16E
:103C600052B11368841A9C4204D100681844106051
:103C7000104602E0506000E0186039B102680B1A8B
:103C8000934203D10B681A4402604968416010BD39
:103C9000B000002086B0FDF73BFEFFF78BFAFEF781
:103CA00063FFFEF73DFFFEF70DFFFEF7F5FFFFF7A1
:103CB0001DF8FFF741F8FFF765F81422074901A83E
:103CC000FCF71FFB002101A800F063F8044908601D
:103CD000FFF754FA00F050F800BFFEE7C4540008A4
:103CE0000000002001460020842901D0CA1C104495
:103CF00070470000F0B50B30154D20F0070100248F
:103D0000144A0FE003688B420BD38B4205D95E1A2D
:103D100043184768C3E9006700E04368136002C0C6
:103D200004E0021D10680028ECD12046002802D1D2
:103D3000286808B10020F0BD064A07481060074A0D
:103D4000121A22F00702C0E9002401202860D7E7F8
:103D5000B4000020B0000020F4400020F042002019
:103D600070B5044625460DB1294600E001210846FC
:103D700000F0F2FC002070BD10B500F027FE00201E
:103D800010BD10B501F0B8F9012801D000F04EFFC8
:103D900010BDFEB504460D46B4F90800FFF7A2FFBA
:103DA000064602A8CDE90060238A9AB22B46D4E9E0
:103DB000001001F071F9012801D00020FEBD029829
:103DC000FCE700002DE9F04105460E461C48076857
:103DD0001C480068001D00F097FB50B919480068A6
:103DE00090F82C1001208840174909688143164833
:103DF0000160681C38B936B112480168091D1348C2
:103E000000F0C0FB1AE07C190E4800684460BC4218
:103E100007D20C480168091D0D48006800F098FBA6
:103E20000CE008480168091D0A48006800F090FB92
:103E300009480068844201D207480460BDE8F08167
:103E40004C0000203800002050000020B83F002027
:103E5000400000203C0000206800002010B504460F
:103E600000F09CFB23480068401C2249086022485F
:103E7000006840B9204804600846006801280DD158
:103E800000F08EF90AE01D48006838B91A48006849
:103E9000C06AE16A884201D817480460184800687F
:103EA000401C1749086094F82C10012088401549DF
:103EB0000968084313490860E16A01EB8101124A6D
:103EC00002EB8100211D00F05DFB00F091FB0B482F
:103ED000006868B108480068C06AE16A884207D291
:103EE0004FF0805009490860BFF34F8FBFF36F8FC9
:103EF00010BD0000480000203800002054000020C1
:103F00006400002050000020DC3E002004ED00E0B2
:103F100070B523E000F09EFD1348006808B9012049
:103F200000E00020054601F04BFABDB900F036FB79
:103F30000D48C068C468201D00F0E6FA0B48006810
:103F4000401E0A4908600A480068401E0849086087
:103F500000F04EFB204600F060F800BF0448006807
:103F60000028D7D170BD0000A43F002048000020E9
:103F70004400002070B504460D46206C70B1216CE1
:103F8000E0680844E0606168E068884201D3206826
:103F9000E0602846226CE168FCF7B3F970BD2DE9BA
:103FA000F04104460F4615464FF00008A66B206C02
:103FB00040B9206860BB606801F052F9804600207B
:103FC000606025E07DB93946226CA068FCF799F95C
:103FD000216CA0680844A060D4E90110884217D37E
:103FE0002068A06014E03946226CE068FCF789F98B
:103FF000216CE068401AE0602168E068884203D2E2
:10400000216C6068401AE060022D01D106B1761E75
:10401000701CA0634046BDE8F08110B50446206BDB
:1040200000F004FB204600F001FB10BD30B54FF45A
:104030007053174800F007042CB1C01D20F0070092
:10404000134C041B1B1B0246124C22600024114D12
:104050006C60D018083820F007000F4C2060002456
:104060000D4D2D686C600C4D2D682C601146441A66
:104070004C60094C24680C60084D4C682C60084D5D
:104080004C682C604FF00044064D2C6030BD0000A1
:10409000DC020020140000201C000020240000206E
:1040A000200000202800002000BFFFF731FF064855
:1040B00000680128F9D94FF0805004490860BFF327
:1040C0004F8FBFF36F8FF0E7DC3E002004ED00E080
:1040D0002DE9F04106460D4617469846069C0DB957
:1040E000246000E02760E66325640121204600F09B
:1040F000C5FEBDE8F0812DE9FF5F81460F4692467F
:10410000DDE90E6B109CAAF10100216B01EB800828
:1041100028F0070808F0070008B9012000E0002097
:1041200050B900BF502080F31188BFF34F8FBFF309
:104130006F8F00BF00BFFEE7002507E0795D04F147
:1041400034004155785D00B902E06D1C102DF5D3A7
:1041500000BF002143200155072E00D30626E6624A
:1041600066640020A064201D00F0EFF904F118003F
:1041700000F0EBF92461C6F10700A0616462002041
:10418000E06484F8500049464046039A00F0A6F9DE
:104190002060BBF1000F01D0CBF80040BDE8FF9FCD
:1041A00010B5002407E004EB84010F4A02EB810004
:1041B00000F0BEF9641C072CF5D30C4800F0B8F9E8
:1041C0000B4800F0B5F90B4800F0B2F90A4800F0CE
:1041D000AFF90A4800F0ACF90448094908600448FE
:1041E0000849086010BD0000DC3E0020683F002048
:1041F0007C3F0020903F0020A43F0020B83F0020DB
:104200003C0000204000002010B50146164800E0A8
:10421000006803688B42FBD30246436813448B4219
:1042200004D143684C682344436001460A464B6806
:1042300013440468A34211D10C4C03682468A342C0
:1042400008D04B680468646823444B6003681B68AB
:104250000B6005E0054B1B680B6001E003680B6019
:10426000884200D0016010BD140000201C00002016
:1042700070B5054600F092F9A86B08B9012400E07A
:10428000002400F0B5F9204670BD00000A49096815
:10429000096809B9012100E0002121B14FF0FF3187
:1042A000064A116006E004490968C968C868034AFB
:1042B00041681160704700003C0000206800002049
:1042C0000E480068401C08B9012000E0002050B9E9
:1042D00000BF502080F31188BFF34F8FBFF36F8F63
:1042E00000BF00BFFEE700BF502080F31188BFF37E
:1042F0004F8FBFF36F8F00BF00BFFEE72C00002081
:1043000070B5044600F04AF994F9455010E0606A2F
:1043100008B9012000E0002038B904F1240001F0C0
:1043200003F818B100F0C0FA00E003E0681E45B2DF
:10433000002DECDC00BFFF2084F8450000F058F9A8
:1043400000F02CF994F9445010E0206908B90120DC
:1043500000E0002048B904F1100000F0E5FF08B1CA
:1043600000F0A2FA681E45B200E001E0002DECDC8E
:1043700000BFFF2084F8440000F03AF970BD00004F
:104380002DE9F04104464FF0000800F063FB464879
:10439000006808B9FFF74AFE44480068204000283A
:1043A0006BD1D4B1083404F00700B0B104F00700B9
:1043B000C0F10800044404F0070008B9012000E03F
:1043C000002050B900BF502080F31188BFF34F8FF9
:1043D000BFF36F8F00BF00BFFEE7002C4DD0344805
:1043E0000068844249D8334E3046056801E02E46C5
:1043F0002D686868A04202D228680028F7D12A48B0
:104400000068854239D0306800F1080828683060BB
:104410006868001B102819D92F1907F0070008B980
:10442000012000E0002050B900BF502080F3118827
:10443000BFF34F8FBFF36F8F00BF00BFFEE7686809
:10444000001B78606C603846FFF7DEFE184968682C
:104450000968081A1649086008460068164909687C
:10446000884203D212480068134908600F496868FF
:104470000968084368600020286000F0A1FF08F088
:10448000070008B9012000E0002050B900BF50200B
:1044900080F31188BFF34F8FBFF36F8F00BF00BF52
:1044A000FEE74046BDE8F0811C0000202800002007
:1044B000200000201400002024000020064800688E
:1044C00030B10549096801F14800896C491C016057
:1044D000014800687047000038000020001F4FF0BE
:1044E00080730360001F21F001030360001F054B70
:1044F000036014380260001F6FF00203036020386D
:1045000070470000C142000801460A69D1E9013044
:104510009860D1E9010358605068884201D18868E9
:104520005060002008611068401E106010687047DD
:1045300000F1080141604FF0FF31816000F1080196
:10454000C160016100210160704700210161704775
:1045500010B502460B685C1C0CB9106907E002F14B
:10456000080000E04068446824689C42FAD9446826
:104570004C604C68A160886041600A611468641CEA
:10458000146010BD42684A6093688B6093685960FC
:104590009160086103685B1C0360704700BF502096
:1045A00080F31188BFF34F8FBFF36F8F00BF0E48AA
:1045B0000068401C0C49086008460068012812D1B8
:1045C0000A480068C0B208B9012000E0002050B9D4
:1045D00000BF502080F31188BFF34F8FBFF36F8F60
:1045E00000BF00BFFEE770472C00002004ED00E094
:1045F0000D48006850B900BF502080F31188BFF308
:104600004F8FBFF36F8F00BF00BFFEE70648006803
:10461000401E054908600846006820B9002080F364
:10462000118800BF00BF70472C00002070B50646FF
:104630003546002E3FD0083D2C461F49606809686A
:10464000084008B1012000E0002050B900BF502010
:1046500080F31188BFF34F8FBFF36F8F00BF00BF90
:10466000FEE7206808B9012000E0002050B900BF33
:10467000502080F31188BFF34F8FBFF36F8F00BFBF
:1046800000BFFEE70C4960680968084098B12068DF
:1046900088B90949606809688843606000F0DAF900
:1046A0000649606809680844044908602046FFF725
:1046B000ABFD00F085FE70BD28000020200000202A
:1046C000064800684FF47A71B0FBF1F0401E4FF0DD
:1046D000E0214861072008617047000010000020B9
:1046E00070B5FBF7C7FD0446102C16D304F1E0208B
:1046F00090F8F05315480078854201DB012000E076
:10470000002050B900BF502080F31188BFF34F8FB5
:10471000BFF36F8F00BF00BFFEE70D48006800F4D5
:10472000E0600C490968884201D8012000E00020BF
:1047300050B900BF502080F31188BFF34F8FBFF3F3
:104740006F8F00BF00BFFEE770BD0000300000208B
:104750000CED00E03400002070B504460025D4B113
:104760001248006808B9012000E0002050B900BFDD
:10477000502080F31188BFF34F8FBFF36F8F00BFBE
:1047800000BFFEE700F066F900212046FFF71AFBA4
:1047900000F016FE05463DB94FF080500449086010
:1047A000BFF34F8FBFF36F8F70BD0000700000200C
:1047B00004ED00E070B50546FFF7F0FE15B930488E
:1047C000006800E028460446201DFFF79DFE78B9EA
:1047D000E06A00EB80002B4951F8200040B994F8C2
:1047E0002C1001208840284909688143264801602F
:1047F000A06A18B104F11800FFF786FE234800688C
:10480000401C224908601E480068844209D1211DCD
:104810001F48FFF7B7FE1F480068401C1D4908608D
:1048200009E01D480068401E1B4908602046FFF74C
:10483000F4FBFFF72BFDFFF7DBFE18480068E8B13B
:104840000F480068844219D11548006808B9012052
:1048500000E0002050B900BF502080F31188BFF362
:104860004F8FBFF36F8F00BF00BFFEE74FF0805048
:104870000C490860BFF34F8FBFF36F8F70BD00000E
:1048800038000020DC3E00205000002064000020A2
:10489000A43F0020440000204800002054000020D5
:1048A0007000002004ED00E001200149086070471D
:1048B0005C00002070B504460D4654B900BF50207E
:1048C00080F31188BFF34F8FBFF36F8F00BF00BF1E
:1048D000FEE70548016818312046FFF739FE01213F
:1048E0002846FFF76FFA70BD3800002070B5054606
:1048F0002C46002D4BD02649E06A0968C96A8842D7
:1049000045D2A06900F0004028B921480068C06A7B
:10491000C0F10700A061E16A01EB81011D4A02EBD1
:1049200081016069884201D1012000E0002050B37C
:10493000201DFFF7E9FD78B9E06A00EB800015491A
:1049400051F8200040B994F82C10012088401249F9
:1049500009688143104801600D480068C06AE06240
:1049600094F82C10012088400B49096808430A4933
:104970000860E16A01EB8101064A02EB8100211D1A
:10498000FFF700FE03E002480068C06AE06270BD05
:1049900038000020DC3E00205000002050B900BF4D
:1049A000502181F31188BFF34F8FBFF36F8F00BF8A
:1049B00000BFFEE7034909680160034909684160D7
:1049C00070470000600000204C0000201CB51A4811
:1049D00000210B468022CDE9001018A1194800F0F3
:1049E0005BFB0446012C15D100BF502080F31188D9
:1049F000BFF34F8FBFF36F8F00BF4FF0FF301249EF
:104A0000086001201149086000201149086000F089
:104A10006FF810E0601C08B1012000E0002050B9E0
:104A200000BF502080F31188BFF34F8FBFF36F8F0B
:104A300000BF00BFFEE71CBD6C00002049444C4590
:104A400000000000A9400008680000205400002079
:104A50004C00002002480068401C01490860704773
:104A6000700000201D48006818B101201C49086032
:104A700032E000201A4908601A480068B0FA80F055
:104A8000C0F11F0101EB8100174A52F8200008B164
:104A9000012000E0002050B900BF502080F31188B1
:104AA000BFF34F8FBFF36F8F00BF00BFFEE701EB77
:104AB00081020D4B03EB820042685268426000F1B4
:104AC00008024368934202D14268526842604268D9
:104AD000D268064B1A6000BF7047000070000020CB
:104AE0005C00002050000020DC3E00203800002048
:104AF0001CB5474800684749884201D0012000E0C2
:104B0000002050B900BF502080F31188BFF34F8FB1
:104B1000BFF36F8F00BF00BFFEE73D4800683D490F
:104B2000491E884201D0012000E0002050B900BF9A
:104B3000502080F31188BFF34F8FBFF36F8F00BFFA
:104B400000BFFEE73449084600780190FF200A467E
:104B500010700846007800909DF8000000F0F0000A
:104B60009DF80020904201D1012000E0002050B9C2
:104B700000BF502080F31188BFF34F8FBFF36F8FBA
:104B800000BF00BFFEE79DF8000000F05000234A80
:104B900010700720224A106009E021480068401E7A
:104BA0001F4A10609DF800004006000E00909DF81E
:104BB000000000F080008028EFD019480068000253
:104BC000174A10601046008800F4E0601060124A36
:104BD000019810700E482030006840F470000C49B5
:104BE000203108600846006840F070400860FFF718
:104BF00067FD00200B490860FBF702FB0A480068CC
:104C000040F0404008490860FBF7EAFA00201CBD6C
:104C100000ED00E071C20F4100E400E03000002030
:104C2000340000202C00002034EF00E010B500BF5D
:104C3000502080F31188BFF34F8FBFF36F8F00BFF9
:104C400000F06AFA18B14FF080500449086000BFC4
:104C5000002080F3118800BF10BD000004ED00E0CB
:104C60002DE9F84305460E4690460DB1012000E0BF
:104C7000002050B900BF502080F31188BFF34F8F40
:104C8000BFF36F8F00BF00BFFEE70EB9002701E042
:104C900005FB06F707F14800FFF772FB044644B135
:104CA00004F1480943464A46314628460094FFF736
:104CB0000FFA2046BDE8F8832DE9FF4782B005468C
:104CC0000E461F464FF0000A2C4654B900BF502034
:104CD00080F31188BFF34F8FBFF36F8F00BF00BF0A
:104CE000FEE70EB9206C08B9012000E0002050B9A1
:104CF00000BF502080F31188BFF34F8FBFF36F8F39
:104D000000BF00BFFEE700F0F7F908B9049808B942
:104D1000012000E0002050B900BF502080F311882E
:104D2000BFF34F8FBFF36F8F00BF00BFFEE700BF21
:104D3000FFF734FCD4F83890B9F1000F3DD0D4F827
:104D40000C8031462046FFF715F9DFB9A9F10100C3
:104D5000A063206810B9FFF7B1FB6060206908B953
:104D6000012000E0002010BB04F1100000F0DCFA8C
:104D7000E8B14FF0805040490860BFF34F8FBFF358
:104D80006F8F14E0C4F80C80606A08B9012000E05D
:104D9000002060B904F1240000F0C6FA38B14FF0E9
:104DA000805035490860BFF34F8FBFF36F8FFFF717
:104DB0001FFC012006B0BDE8F087049818B9FFF782
:104DC00017FC0020F6E7BAF1000F04D16846FFF7A0
:104DD000E5FD4FF0010AFFF70BFCFFF73BFEFFF785
:104DE000DDFB94F94400401C10B9002084F8440015
:104DF00094F94500401C10B9002084F84500FFF7E5
:104E0000F7FB04A9684600F001F940BB2046FFF714
:104E10002FFAF0B1206830B9FFF7C0FB6068FFF7E8
:104E200065FDFFF7E5FB04F124000499FFF742FD5F
:104E30002046FFF765FA00F0C3FA00287FF478AF48
:104E40004FF080500C490860BFF34F8FBFF36F8F56
:104E50006EE72046FFF754FA00F0B2FA68E7204602
:104E6000FFF74EFA00F0ACFA2046FFF701FA0028EF
:104E7000EED000209EE7000004ED00E070B505468E
:104E80000E462C4654B900BF502080F31188BFF362
:104E90004F8FBFF36F8F00BF00BFFEE7FFF77EFBB2
:104EA000D4E90F12206801FB020060600020A063BB
:104EB0002068A060E06B401E226C216800FB02109D
:104EC000E060FF2084F8440084F845009EB9206922
:104ED00008B9012000E00020A8B904F1100000F09A
:104EE00023FA80B14FF0805009490860BFF34F8F1B
:104EF000BFF36F8F07E004F11000FFF719FB04F117
:104F00002400FFF715FBFFF773FB012070BD0000C5
:104F100004ED00E02DE9F05F07468A4690461E4604
:104F20003C4654B900BF502080F31188BFF34F8F27
:104F3000BFF36F8F00BF00BFFEE7BAF1000F01D1D2
:104F4000206C08B9012000E0002050B900BF5020BB
:104F500080F31188BFF34F8FBFF36F8F00BF00BF87
:104F6000FEE7022E02D1E06B012801D1012000E012
:104F7000002050B900BF502080F31188BFF34F8F3D
:104F8000BFF36F8F00BF00BFFEE7FFF7A9FB00BFB5
:104F90005021EFF3118081F31188BFF34F8FBFF3DE
:104FA0006F8F00BF0546A06BE16B884201D3022ED4
:104FB00023D194F945B0324651462046FEF7EFFF23
:104FC0000BF1010088B9606A08B9012000E00020F7
:104FD00080B904F1240000F0A7F958B1B8F1000F2E
:104FE00008D00120C8F8000004E00BF1010040B235
:104FF00084F845004FF0010901E04FF0000900BFBF
:1050000085F3118800BF4846BDE8F09F70B504469F
:105010000D4654B900BF502080F31188BFF34F8F65
:10502000BFF36F8F00BF00BFFEE755B900BF502030
:1050300080F31188BFF34F8FBFF36F8F00BF00BFA6
:10504000FEE7FFF7ABFA124803682868401C08B96E
:10505000002619E00F4920680968884204D060687A
:10506000984201D801260FE06068181A2968884222
:1050700009D228686168591A401A28602046FFF74B
:105080008DFC002600E00126FFF7B2FA304670BD25
:105090004C000020600000202DE9FF4F85B08046C5
:1050A00089461746DDE912ABB800FFF769F90646F5
:1050B00056B15420FFF764F904460CB1266304E0AE
:1050C0003046FFF7B3FA00E000247CB10020CDE9C0
:1050D00000ABCDE902403A4649464046089BFFF7FF
:1050E0000AF82046FEF7BAFE012501E04FF0FF3531
:1050F000284609B0BDE8F08F0549096809B90120C3
:1051000005E00449096809B9022000E00020704761
:1051100054000020700000202DE9F0414FF00008FD
:1051200044480068002877D143480068451C42483D
:10513000056015BB41480068006808B9012000E01F
:10514000002050B900BF502080F31188BFF34F8F6B
:10515000BFF36F8F00BF00BFFEE7384807683848CD
:105160000068364908603648076036480068401CC9
:1051700034490860FFF78AF800BF33480068854269
:105180003CD300BF2D480068006808B9012000E04A
:10519000002020B14FF0FF302B4908602DE0274858
:1051A0000068C068C4686668B54202D226480660D6
:1051B00023E0201DFFF7A8F9A06A18B104F1180038
:1051C000FFF7A2F994F82C10012088401F490968C4
:1051D00008431E490860E16A01EB81011C4A02EBA9
:1051E0008100211DFFF7CEF91A49E06A0968C96AF2
:1051F0008842C7D34FF00108C4E700BF15480068D4
:10520000C06A00EB8000124951F82000012801D942
:105210004FF0010805E0FFE70F480068401C0E4909
:1052200008600E48006808B14FF001084046BDE82C
:10523000F0810000700000204C0000203C000020A5
:105240004000002060000020680000205000002086
:10525000DC3E002038000020580000205C000020C8
:1052600070B505462C460026002D55D02B48006809
:10527000844201D1012000E0002050B900BF50203D
:1052800080F31188BFF34F8FBFF36F8F00BF00BF54
:10529000FEE7A06C50B900BF502080F31188BFF327
:1052A0004F8FBFF36F8F00BF00BFFEE7A06C401EA3
:1052B000A064616CE06A88422ED0A06C60BB201DA7
:1052C000FFF722F978B9E06A00EB8000144951F841
:1052D000200040B994F82C10012088401149096839
:1052E000814310480160606CE062E06AC0F1070031
:1052F000A06194F82C10012088400A4909680843ED
:1053000008490860E16A01EB8101054A02EB81006E
:10531000211DFFF737F90126304670BD3800002007
:10532000DC3E00205000002070B50646F068C468DE
:1053300054B900BF502080F31188BFF34F8FBFF3E3
:105340006F8F00BF00BFFEE704F11800FFF7DCF825
:1053500015480068A8B9201DFFF7D6F894F82C105E
:105360000120884011490968084310490860E16A32
:1053700001EB81010E4A02EB8100211DFFF702F9CA
:1053800004E004F118010B48FFF7FCF80A49E06A51
:105390000968C96A884204D90125012007490860C3
:1053A00000E00025284670BD70000020500000205D
:1053B000DC3E0020903F0020380000205C000020F0
:1053C00070B5002400263648006850B900BF502050
:1053D00080F31188BFF34F8FBFF36F8F00BF00BF03
:1053E000FEE7FFF7DBF82E480068401E2C490860F6
:1053F0000846006800284FD12A48006800284BD092
:1054000024E02948C068C46804F11800FFF77CF85C
:10541000201DFFF779F894F82C10012088402349CB
:105420000968084321490860E16A01EB8101204ACB
:1054300002EB8100211DFFF7A5F81E49E06A09680B
:10544000C96A884202D301201B49086016480068D7
:1054500008B9012000E000200028D2D00CB1FEF7EE
:1054600015FF1648056865B100BFFFF755FE10B17E
:105470000120114908606D1E002DF6D100200F4952
:1054800008600D48006838B1012630070C490860F3
:10549000BFF34F8FBFF36F8FFFF7AAF8304670BD91
:1054A0007000002048000020903F002050000020A5
:1054B000DC3E0020380000205C0000205800002066
:1054C00004ED00E0585500086130000800000000BD
:1054D00000000000800000000006101600061016F4
:1054E0000000000000000000010203040607080994
:1054F000000000000102030455000000000000004D
:10550000550000000000000084550008F530000838
:105510000000000000000000000200006C550008C0
:10552000B530000803000000000000000002000089
:10553000645500086D300008000000000000000005
:105540008000000078550008353000080000000099
:10555000000000000002000064656661756C745410
:1055600061736B006C65645461736B00706172737E
:10557000655461736B0000006368617373697354F1
:1055800061736B00737973496E69745461736B0056
:10559000B055000800000020B8000000243C0008BE
:1055A00068560008B800002038460000343C000867
:1055B00000000000000000001000000001000000DA
:1055C0000024F400000000000000000000000000C3
:1055D000000000000000000000000000AAAAAAAA23
:1055E00000000000000000000000000000000000BB
:1055F00000000000000000000000000000000000AB
:10560000000000000000000000000000000000009A
:10561000000000000000000000000000000000008A
:10562000000000000000000000000000000000007A
:10563000000000000000000000000000000000006A
:10564000000000000000000000000000000000005A
:10565000000000000000000000000000000000004A
:08566000000000000000000042
:04000005080001AD41
:00000001FF
